{
  "contractName": "Contest",
  "abi": [
    {
      "inputs": [],
      "payable": false,
      "stateMutability": "nonpayable",
      "type": "constructor"
    },
    {
      "anonymous": false,
      "inputs": [
        {
          "indexed": true,
          "internalType": "uint256",
          "name": "_contestantId",
          "type": "uint256"
        }
      ],
      "name": "votedEvent",
      "type": "event"
    },
    {
      "constant": true,
      "inputs": [
        {
          "internalType": "uint256",
          "name": "",
          "type": "uint256"
        }
      ],
      "name": "contestants",
      "outputs": [
        {
          "internalType": "uint256",
          "name": "id",
          "type": "uint256"
        },
        {
          "internalType": "string",
          "name": "name",
          "type": "string"
        },
        {
          "internalType": "uint256",
          "name": "voteCount",
          "type": "uint256"
        }
      ],
      "payable": false,
      "stateMutability": "view",
      "type": "function"
    },
    {
      "constant": true,
      "inputs": [],
      "name": "contestantsCount",
      "outputs": [
        {
          "internalType": "uint256",
          "name": "",
          "type": "uint256"
        }
      ],
      "payable": false,
      "stateMutability": "view",
      "type": "function"
    },
    {
      "constant": true,
      "inputs": [],
      "name": "voterCount",
      "outputs": [
        {
          "internalType": "uint256",
          "name": "",
          "type": "uint256"
        }
      ],
      "payable": false,
      "stateMutability": "view",
      "type": "function"
    },
    {
      "constant": true,
      "inputs": [
        {
          "internalType": "uint256",
          "name": "",
          "type": "uint256"
        }
      ],
      "name": "voterData",
      "outputs": [
        {
          "internalType": "uint256",
          "name": "id",
          "type": "uint256"
        },
        {
          "internalType": "address",
          "name": "account",
          "type": "address"
        },
        {
          "internalType": "string",
          "name": "aadhar",
          "type": "string"
        }
      ],
      "payable": false,
      "stateMutability": "view",
      "type": "function"
    },
    {
      "constant": true,
      "inputs": [
        {
          "internalType": "address",
          "name": "",
          "type": "address"
        }
      ],
      "name": "voters",
      "outputs": [
        {
          "internalType": "bool",
          "name": "",
          "type": "bool"
        }
      ],
      "payable": false,
      "stateMutability": "view",
      "type": "function"
    },
    {
      "constant": false,
      "inputs": [
        {
          "internalType": "uint256",
          "name": "_contestantId",
          "type": "uint256"
        },
        {
          "internalType": "string",
          "name": "aadhar",
          "type": "string"
        }
      ],
      "name": "vote",
      "outputs": [],
      "payable": false,
      "stateMutability": "nonpayable",
      "type": "function"
    }
  ],
  "bytecode": "0x608060405234801561001057600080fd5b506100556040518060400160405280600381526020017f546f6d000000000000000000000000000000000000000000000000000000000081525061009e60201b60201c565b6100996040518060400160405280600581526020017f4a6572727900000000000000000000000000000000000000000000000000000081525061009e60201b60201c565b6101bf565b60036000815480929190600101919050555060405180606001604052806003548152602001828152602001600081525060016000600354815260200190815260200160002060008201518160000155602082015181600101908051906020019061010992919061011a565b506040820151816002015590505050565b828054600181600116156101000203166002900490600052602060002090601f016020900481019282601f1061015b57805160ff1916838001178555610189565b82800160010185558215610189579182015b8281111561018857825182559160200191906001019061016d565b5b509050610196919061019a565b5090565b6101bc91905b808211156101b85760008160009055506001016101a0565b5090565b90565b610a49806101ce6000396000f3fe608060405234801561001057600080fd5b50600436106100625760003560e01c8063241084751461006757806342169e481461012c578063666e791b1461014a578063a3ec138d1461022b578063dfd50f5214610287578063ec63d1c81461033c575b600080fd5b61012a6004803603604081101561007d57600080fd5b8101908080359060200190929190803590602001906401000000008111156100a457600080fd5b8201836020820111156100b657600080fd5b803590602001918460018302840111640100000000831117156100d857600080fd5b91908080601f016020809104026020016040519081016040528093929190818152602001838380828437600081840152601f19601f82011690508083019250505050505050919291929050505061035a565b005b6101346105e0565b6040518082815260200191505060405180910390f35b6101766004803603602081101561016057600080fd5b81019080803590602001909291905050506105e6565b604051808481526020018373ffffffffffffffffffffffffffffffffffffffff1673ffffffffffffffffffffffffffffffffffffffff16815260200180602001828103825283818151815260200191508051906020019080838360005b838110156101ee5780820151818401526020810190506101d3565b50505050905090810190601f16801561021b5780820380516001836020036101000a031916815260200191505b5094505050505060405180910390f35b61026d6004803603602081101561024157600080fd5b81019080803573ffffffffffffffffffffffffffffffffffffffff1690602001909291905050506106c8565b604051808215151515815260200191505060405180910390f35b6102b36004803603602081101561029d57600080fd5b81019080803590602001909291905050506106e8565b6040518084815260200180602001838152602001828103825284818151815260200191508051906020019080838360005b838110156102ff5780820151818401526020810190506102e4565b50505050905090810190601f16801561032c5780820380516001836020036101000a031916815260200191505b5094505050505060405180910390f35b6103446107aa565b6040518082815260200191505060405180910390f35b600080905060008090505b6005805490508110156103a9576103926005828154811061038257fe5b90600052602060002001846107b0565b1561039c57600191505b8080600101915050610365565b81156103b457600080fd5b600260003373ffffffffffffffffffffffffffffffffffffffff1673ffffffffffffffffffffffffffffffffffffffff16815260200190815260200160002060009054906101000a900460ff161561040b57600080fd5b60008411801561041d57506003548411155b61042657600080fd5b60016000858152602001908152602001600020600201600081548092919060010191905055506001600260003373ffffffffffffffffffffffffffffffffffffffff1673ffffffffffffffffffffffffffffffffffffffff16815260200190815260200160002060006101000a81548160ff02191690831515021790555060058390806001815401808255809150509060018203906000526020600020016000909192909190915090805190602001906104e19291906108ef565b5050600460008154809291906001019190505550604051806060016040528060045481526020013373ffffffffffffffffffffffffffffffffffffffff1681526020018481525060008060045481526020019081526020016000206000820151816000015560208201518160010160006101000a81548173ffffffffffffffffffffffffffffffffffffffff021916908373ffffffffffffffffffffffffffffffffffffffff16021790555060408201518160020190805190602001906105a992919061096f565b50905050837ffff3c900d938d21d0990d786e819f29b8d05c1ef587b462b939609625b684b1660405160405180910390a250505050565b60045481565b60006020528060005260406000206000915090508060000154908060010160009054906101000a900473ffffffffffffffffffffffffffffffffffffffff1690806002018054600181600116156101000203166002900480601f0160208091040260200160405190810160405280929190818152602001828054600181600116156101000203166002900480156106be5780601f10610693576101008083540402835291602001916106be565b820191906000526020600020905b8154815290600101906020018083116106a157829003601f168201915b5050505050905083565b60026020528060005260406000206000915054906101000a900460ff1681565b6001602052806000526040600020600091509050806000015490806001018054600181600116156101000203166002900480601f01602080910402602001604051908101604052809291908181526020018280546001816001161561010002031660029004801561079a5780601f1061076f5761010080835404028352916020019161079a565b820191906000526020600020905b81548152906001019060200180831161077d57829003601f168201915b5050505050908060020154905083565b60035481565b6000808390506060839050805182805460018160011615610100020316600290049050146107e3576000925050506108e9565b60008090505b828054600181600116156101000203166002900490508110156108e15781818151811061081257fe5b602001015160f81c60f81b7effffffffffffffffffffffffffffffffffffffffffffffffffffffffffffff1916838281546001816001161561010002031660029004811061085c57fe5b81546001161561087b5790600052602060002090602091828204019190065b9054901a7f0100000000000000000000000000000000000000000000000000000000000000027effffffffffffffffffffffffffffffffffffffffffffffffffffffffffffff1916146108d457600093505050506108e9565b80806001019150506107e9565b506001925050505b92915050565b828054600181600116156101000203166002900490600052602060002090601f016020900481019282601f1061093057805160ff191683800117855561095e565b8280016001018555821561095e579182015b8281111561095d578251825591602001919060010190610942565b5b50905061096b91906109ef565b5090565b828054600181600116156101000203166002900490600052602060002090601f016020900481019282601f106109b057805160ff19168380011785556109de565b828001600101855582156109de579182015b828111156109dd5782518255916020019190600101906109c2565b5b5090506109eb91906109ef565b5090565b610a1191905b80821115610a0d5760008160009055506001016109f5565b5090565b9056fea265627a7a72315820ced3b3393c952075ac03ec7d3d7061c21a58a71079e52f97b39c1ef4ab7df88364736f6c63430005100032",
  "source": "pragma solidity 0.5.16;\r\n \r\n//creating the contract\r\ncontract Contest {\r\n \r\n\t//creating strcture to model the contestant\r\n\tstruct Contestant {\r\n\t\tuint id;\r\n\t\tstring name;\r\n\t\tuint voteCount;\r\n\t}\r\n    \r\n\tstruct Voter {\r\n\t\tuint id;\r\n\t\taddress account;\r\n\r\n\t\tstring aadhar;\r\n\t}\r\n\tmapping(uint => Voter) public voterData;\r\n\t//use mapping to get or fetch the contestant details\r\n\tmapping(uint => Contestant) public contestants;\r\n \r\n\t//to save the list of users/accounts who already casted vote\r\n\tmapping(address => bool) public voters;\r\n \r\n\t//add a public state variable to keep track of contestant Count\r\n\tuint public contestantsCount;\r\n\r\n\tuint public voterCount;\r\n\r\n\t//\r\n    string[] myVoters;\r\n \r\n\tevent votedEvent (\r\n        uint indexed _contestantId\r\n    );\r\n \r\n    constructor() public {\r\n\t\taddContestant(\"Tom\");\r\n\t\taddContestant(\"Jerry\");\r\n\t}\r\n \r\n\t//add a function to add contestant\r\n\tfunction addContestant (string memory _name) private {\r\n\t\tcontestantsCount ++;\r\n\t\tcontestants[contestantsCount] = Contestant(contestantsCount, _name, 0);\r\n\t}\r\n   function stringsEqual(string storage _a, string memory _b) internal returns (bool) \r\n   { \r\n\tbytes storage a = bytes(_a); bytes memory b = bytes(_b); \r\n   if (a.length != b.length)\r\n    return false; \r\n   \r\n   for (uint i = 0; i < a.length; i ++) \r\n   if (a[i] != b[i]) \r\n   return false; \r\n   return true;\r\n   }\r\n\tfunction vote (uint _contestantId,string memory aadhar) public {\r\n\t\t//restricting the person who already casted the vote\r\n\t\tbool a=false;\r\n\t\tuint i;\r\n\t\t for(i = 0; i < myVoters.length; i++)\r\n  \t\t{\r\n    \t if(stringsEqual(myVoters[i],aadhar))\r\n\t\ta=true;\r\n\t\t}\r\n\t\t    require(!a);\r\n\t\t\trequire(!voters[msg.sender]);\r\n\t\t//require that the vote is casted to a valid contestant\r\n\t\trequire(_contestantId > 0 && _contestantId <= contestantsCount);\r\n\t\t//increase the contestant vote count\r\n\t\tcontestants[_contestantId].voteCount ++;\r\n\t\t//set the voter's voted status to true\r\n\t\tvoters[msg.sender] = true;\r\n\t\tmyVoters.push(aadhar);\r\n        voterCount ++;\r\n\t\tvoterData[voterCount] = Voter(voterCount, msg.sender,aadhar);\r\n\t\t//trigger the vote event\r\n\t\temit votedEvent(_contestantId);\r\n\t\t\r\n\t\t\r\n\t}\r\n}",
  "sourcePath": "C:/Users/acer/Desktop/Other/Election/contracts/Contest.sol",
  "compiler": {
    "name": "solc",
    "version": "0.5.16+commit.9c3226ce.Emscripten.clang"
  },
  "schemaVersion": "3.3.4",
  "updatedAt": "2021-05-19T20:25:49.603Z",
  "networkType": "ethereum",
  "devdoc": {
    "methods": {}
  },
  "userdoc": {
    "methods": {}
  }
}